:0400000064EF00F0B9
:0C000800FACF03F0FBCF04F04EEF3FF006
:10001800D8CF12F0E8CF13F0E0CF14F0FACF15F0F4
:10002800FBCF16F0E9CF17F0EACF18F0E1CF19F0BF
:10003800E2CF1AF0D9CF1BF0DACF1CF0F3CF1DF0C6
:10004800F4CF1EF0F6CF1FF0F7CF20F0F8CF21F055
:10005800F5CF22F0F0A201D001D00FD0F09289A8FC
:1000680001D002D0010E01D0000E116E113A895054
:100078001118EF0B1118896E00D022C0F5FF21C0AE
:10008800F8FF20C0F7FF1FC0F6FF1EC0F4FF1DC019
:10009800F3FF1CC0DAFF1BC0D9FF1AC0E2FF19C06A
:1000A800E1FF18C0EAFF17C0E9FF16C0FBFF15C043
:1000B800FAFF14C0E0FF13C0E8FF12C0D8FF100019
:1000C80010EF68F0ADEF0AF0000100018E51250A2B
:1000D800D8B441D0000120EE02F000017351D926B6
:1000E80000017451DA22DE50DD10D8B41CD08EC065
:1000F80060F0000120EE02F000017351D9260001E2
:100108007451DA22DECF79F0DDCF7AF002D8ADEF84
:100118000AF00500FA6E00017951FD6E7A51FE6E03
:10012800FF6AFA50120073C0D9FF74C0DAFFDECF3D
:1001380079F0DDCF7AF079C0D9FF7AC0DAFF000113
:100148008EC0DFFF73C0D9FF74C0DAFFDE2A000E4D
:10015800DD22ADEF0AF0000E00010001896F000EEC
:100168000001886F000E00010001906F000E000171
:100178008F6F13D0000100018F870BD000010001A1
:100188008F8107D000010001908703D00001000192
:100198008F8500010001754B762B000175C0F6FFB5
:1001A800000176C0F7FF000EF86E0F0EF76403D05B
:1001B8000800F55005D0F6CFE9FFF7CFEAFFEF507A
:1001C800200AD8B4DBD7030AD8B4DCD70E0AD8B4CF
:1001D800D1D71D0AD8B4DAD7000100018FA703D000
:1001E800000100018F95000175C0F6FF000176C07F
:1001F800F7FF000EF86E0F0EF76403D00800F550F5
:1002080005D0F6CFE9FFF7CFEAFFEF500001000174
:10021800606F28EC74F0D8A062D0000E00010001D5
:10022800896F000E0001886F88C06BF089C06CF080
:10023800000E000100016E6F0A0E00016D6F72EC76
:1002480070F000016BC088F000016CC089F00001FB
:1002580075C0F6FF000176C0F7FF000EF86E0F0EAE
:10026800F76403D00800F55005D0F6CFE9FFF7CFC3
:10027800EAFFEF500001796FD00E000179250001E7
:100288007A6F000100017B6BFF0E7B2300017A511E
:1002980000010001882700017B510001000189232A
:1002A80000010001754B762B000175C0F6FF0001B7
:1002B80076C0F7FF000EF86E0F0EF76403D0080043
:1002C800F55005D0F6CFE9FFF7CFEAFFEF50000170
:1002D8000001606F28EC74F0D8A031D0A5D70001D8
:1002E80075C0F6FF000176C0F7FF000EF86E0F0E1E
:1002F800F76403D00800F55005D0F6CFE9FFF7CF33
:10030800EAFFEF502A0AD8A41AD077C0D9FF78C0DC
:10031800DAFFDFCF79F0020EDE26DFCF7AF0000EAB
:10032800DD2279C0D9FF7AC0DAFF0001DECF88F07C
:100338000001DDCF89F000010001754B762B00012B
:1003480075C0F6FF000176C0F7FF000EF86E0F0EBD
:10035800F76403D00800F55005D0F6CFE9FFF7CFD2
:10036800EAFFEF502E0AD8A47ED000010001908D3C
:1003780000010001754B762B000175C0F6FF0001E6
:1003880076C0F7FF000EF86E0F0EF76403D0080072
:10039800F55005D0F6CFE9FFF7CFEAFFEF502A0A6C
:1003A800D8A419D077C0D9FF78C0DAFFDFCF79F0A9
:1003B800020EDE26DFCF7AF0000EDD2279C0D9FFEB
:1003C8007AC0DAFFDF5000010001876F00010001E9
:1003D800754B762BCFD10001796F000E000100011B
:1003E800876F0001795124D0000175C0F6FF000124
:1003F80076C0F7FF000EF86E0F0EF76403D0080002
:10040800F55005D0F6CFE9FFF7CFEAFFEF5000012E
:10041800796F0001000187510A0DF3500001792519
:10042800D00F00010001876F00010001754B762B8A
:10043800000175C0F6FF000176C0F7FF000EF86EE8
:100448000F0EF76403D00800F55005D0F6CFE9FF8A
:10045800F7CFEAFFEF5000010001606F28EC74F05D
:10046800D8A088D1C1D70001796F000E0001000122
:10047800876F000179517ED1000100018F8DB7D1BE
:10048800000100018F8B000100018F8FB0D10001A6
:1004980000018751D8B41ED0000187C079F000014F
:1004A8007A6B79BF7A07000100018C510001795DF0
:1004B800000100018D5100017A59D8B00BD000011C
:1004C80000018751000100018C6F00018D6B000154
:1004D8008CBF8D07000100018851000100018C5D6F
:1004E800000100018951000100018D59D8B00CD0DC
:1004F800000120EE8CF0DE5000010001885FDD5025
:1005080000010001895B07D0000E00010001896F1E
:10051800000E0001886F000100018FA744D09FD012
:10052800000120EE02F000017351D9260001745138
:10053800DA22DE50DD10D8B421D00001796F200E08
:1005480000010001606F00017951000120EE02F006
:1005580000017351D92600017451DA22DECF7AF0F6
:10056800DDCF7BF001D81FD00500FA6E00017A516B
:10057800FD6E7B51FE6EFF6AFA50120073C0D9FF00
:1005880074C0DAFFDECF79F0DDCF7AF079C0D9FF19
:100598007AC0DAFF200EDF6E73C0D9FF74C0DAFFAD
:1005A800DE2A000EDD22000100018807D8A0890795
:1005B80000018829D8B48929D8B451D0B1D700010D
:1005C80020EE02F000017351D92600017451DA229D
:1005D800DE50DD10D8B426D08AC0D9FF8BC0DAFF30
:1005E800DF5000010001606F000120EE02F0000101
:1005F8007351D92600017451DA22DECF79F0DDCFAC
:100608007AF001D80AD00500FA6E00017951FD6E22
:100618007A51FE6EFF6AFA501200000100018A4BFF
:100628008B2B1DD08AC0D9FF8BC0DAFF73C0E1FFC6
:1006380074C0E2FFE6CF79F0E5CF7AF079C0E1FF48
:100648007AC0E2FFDFCFE7FF000100018A4B8B2B66
:1006580073C0D9FF74C0DAFFDE2A000EDD22000164
:1006680000018C07D8A08D0700018C29D8B48D29EA
:10067800D8A4A5D7000100018FB745D0ADEF0AF087
:10068800000120EE02F000017351D92600017451D7
:10069800DA22DE50DD10D8B421D00001796F200EA7
:1006A80000010001606F00017951000120EE02F0A5
:1006B80000017351D92600017451DA22DECF7AF095
:1006C800DDCF7BF001D81FD00500FA6E00017A510A
:1006D800FD6E7B51FE6EFF6AFA50120073C0D9FF9F
:1006E80074C0DAFFDECF79F0DDCF7AF079C0D9FFB8
:1006F8007AC0DAFF200EDF6E73C0D9FF74C0DAFF4C
:10070800DE2A000EDD22000100018807D8A0890733
:1007180000018829D8B48929D8B4ADEF0AF0B0D738
:1007280077C0D9FF78C0DAFFDFCF79F0020EDE2676
:10073800DFCF7AF0000EDD2279C0D9FF7AC0DAFF68
:10074800DF50000100018E6F0001000E0001000162
:100758008B6F00018E0E00018A6F000E00010001F0
:100768008D6F010E00018C6F92D6C00E0001000142
:100778008F133DD00001000175510001796F000110
:100788000001765100017A6F0001754B762B79C014
:10079800F6FF7AC0F7FF000EF86E0F0EF76403D06D
:1007A8000800F55005D0F6CFE9FFF7CFEAFFEF5084
:1007B800000100018E6F00018E51000AD8B4D2EFFB
:1007C8000AF0580AD8B45CD63B0AD8B4A9D7070AA5
:1007D800D8B40DD00D0AD8B40AD0060AD8B44CD66D
:1007E8001A0AD8B4C2D70D0AD8B44DD6ADD7C00EA0
:1007F800000100018F150001796F000E0001000152
:10080800901500017A6F00017A517911D8A426D089
:1008180077C0D9FF78C0DAFFDFCF79F0020EDE2685
:10082800DFCF7AF0000EDD2279C0D9FF7AC0DAFF77
:100838000001DECF8AF00001DDCF8BF0000100015E
:100848008BAF22D0030E000100018F1300010001BD
:100858008A6D00018B1FD8B08B2B16D077C0D9FFBB
:1008680078C0DAFFDFCF79F0020EDE26DFCF7AF02C
:10087800000EDD2279C0D9FF7AC0DAFF0001DECF91
:100888008AF00001DDCF8BF00001000187679DD061
:10089800000100018B518A11D8A497D000010001F2
:1008A800872B93D00001796F010E000100018E6F34
:1008B80000017951000100018E51050AD8B495D084
:1008C800000100018E51020DCE0EF324F66EFA0ED1
:1008D800F420F76EF86A000EF8220900F5CF79F0D7
:1008E8000900F5CF7AF000017951000100018A5D15
:1008F80000017A51000100018B59D8A076D000017F
:1009080000018E2BD7D70001796F010E000100017D
:100918008E6F00017951000100018E51040AD8B48C
:1009280064D0000100018E51020DE00EF324F66E32
:10093800FA0EF420F76EF86A000EF8220900F5CFD7
:1009480079F00900F5CF7AF0000179510001000132
:100958008A5D00017A51000100018B59D8A045D069
:10096800000100018E2BD7D70001796F010E00011D
:1009780000018E6F00017951000100018E51060AB5
:10098800D8B433D0000100018E51020DC20EF324F9
:10099800F66EFA0EF420F76EF86A000EF8220900D7
:1009A800F5CF79F00900F5CF7AF00001795100010F
:1009B80000018A5D00017A51000100018B59D8A01D
:1009C80014D0000100018E2BD7D7000100018F51F0
:1009D800C00B000AD8B466D7400AD8B4C5D7C00A35
:1009E800D8B491D7400AD8B45DD7000100018E5120
:1009F800800A0001796F000100018751800A000117
:100A0800795DD8B003D087C08EF00FD00001000107
:100A18008751800A0001796F000100018E51800A18
:100A28000001795DD8A08EC087F0000100018951CE
:100A38008811D8B416D0030E000100018F150001EB
:100A4800796F000E00010001901500017A6F000116
:100A58007A517911D8B405D0000100018807D8A0CF
:100A680089070001000190AD29D0800E0001000126
:100A780087BF7F0E796F00010001885100010001D6
:100A8800875D000100018951800A00017959D8B0B9
:100A98000ED000010001875100010001885F000E9F
:100AA800000187BFFF0E00010001895B07D0000E1F
:100AB80000010001896F000E0001886FC40E00015B
:100AC80000018F150001796F080E000100019015D3
:100AD80000017A6F00017A51080A400ED8B47919DA
:100AE800D8A40CD00001000189518811D8B433D0A2
:100AF800000100018807D8A089072DD0C00E000189
:100B080000018F150001796F080E00010001901592
:100B180000017A6F00017A51080A800ED8B4791959
:100B2800D8A419D0000100018951800A800F030E52
:100B3800D8B4885DD8A008D00001FE0E000188272F
:100B4800FF0E0001892307D0000E00010001896F04
:100B5800000E0001886F800E000100018EBF7F0E1D
:100B6800796F000100018851000100018E5D0001CC
:100B780000018951800A00017959D8B00ED00001CE
:100B880000018E5100010001885F000E00018EBF38
:100B9800FF0E00010001895B07D0000E0001000173
:100BA800896F000E0001886F000100018FA594D1A4
:100BB800030E000100018F150001796F000E00017E
:100BC8000001901500017A6F00017A517911D8B4AB
:100BD8003CD0000120EE02F000017351D92600013B
:100BE8007451DA22DE50DD10D8B421D00001796FBB
:100BF8002D0E00010001606F00017951000120EE07
:100C080002F000017351D92600017451DA22DECFB7
:100C18007AF0DDCF7BF001D810D10500FA6E000123
:100C28007A51FD6E7B51FE6EFF6AFA50120073C056
:100C3800D9FF74C0DAFFDECF79F0DDCF7AF079C062
:100C4800D9FF7AC0DAFF2D0E3FD0000100018FA135
:100C58003DD0000120EE02F000017351D9260001B9
:100C68007451DA22DE50DD10D8B421D00001796F3A
:100C7800200E00010001606F00017951000120EE93
:100C880002F000017351D92600017451DA22DECF37
:100C98007AF0DDCF7BF001D8D0D00500FA6E0001E4
:100CA8007A51FD6E7B51FE6EFF6AFA50120073C0D6
:100CB800D9FF74C0DAFFDECF79F0DDCF7AF079C0E2
:100CC800D9FF7AC0DAFF200EDF6EB0D0C00E000167
:100CD80000018F150001796F080E000100019015C1
:100CE80000017A6F00017A51080A800ED8B4791988
:100CF800D8A4A3D0000120EE02F000017351D92638
:100D080000017451DA22DE50DD10D8B421D0000180
:100D1800796F300E00010001606F00017951000108
:100D280020EE02F000017351D92600017451DA2235
:100D3800DECF7AF0DDCF7BF001D81FD00500FA6E48
:100D480000017A51FD6E7B51FE6EFF6AFA50120067
:100D580073C0D9FF74C0DAFFDECF79F0DDCF7AF047
:100D680079C0D9FF7AC0DAFF300EDF6E73C0D9FFC1
:100D780074C0DAFFDE2A000EDD22000120EE02F048
:100D880000017351D92600017451DA22DE50DD10BA
:100D9800D8B42CD0000100018FBB06D0000E000192
:100DA80000017E6F780E05D0000E000100017E6FF5
:100DB800580E00017D6F7DC060F0000120EE02F04A
:100DC80000017351D92600017451DA22DECF79F07F
:100DD800DDCF7AF001D831D00500FA6E00017951E3
:100DE800FD6E7A51FE6EFF6AFA5012000001000192
:100DF8008FBB06D0000E00010001806F780E05D071
:100E0800000E00010001806F580E00017F6F73C053
:100E1800D9FF74C0DAFFDECF79F0DDCF7AF079C080
:100E2800D9FF7AC0DAFF00017FC0DFFF73C0D9FFA6
:100E380074C0DAFFDE2A000EDD22000100018951AC
:100E48008811D8B424D3000120EE02F000017351B8
:100E5800D92600017451DA22DE50DD10D8B421D031
:100E68000001796F300E00010001606F00017951B7
:100E7800000120EE02F000017351D92600017451DF
:100E8800DA22DECF7AF0DDCF7BF001D81FD0050063
:100E9800FA6E00017A51FD6E7B51FE6EFF6AFA50C0
:100EA800120073C0D9FF74C0DAFFDECF79F0DDCF4E
:100EB8007AF079C0D9FF7AC0DAFF300EDF6E73C0DE
:100EC800D9FF74C0DAFFDE2A000EDD22000100011E
:100ED8008807D8A08907B2D7000100018951881175
:100EE800D8B451D0000100018FB74DD0000120EED9
:100EF80002F000017351D92600017451DA22DE5044
:100F0800DD10D8B421D00001796F200E0001000156
:100F1800606F00017951000120EE02F00001735169
:100F2800D92600017451DA22DECF7AF0DDCF7BF0CA
:100F380001D81FD00500FA6E00017A51FD6E7B5171
:100F4800FE6EFF6AFA50120073C0D9FF74C0DAFF50
:100F5800DECF79F0DDCF7AF079C0D9FF7AC0DAFF39
:100F6800200EDF6E73C0D9FF74C0DAFFDE2A000ED0
:100F7800DD22000100018807D8A0890700018951F6
:100F88008811D8A4B3D7030E000100018F15000102
:100F9800796F000E00010001901500017A6F0001C1
:100FA8007A517911D8B43CD0000120EE02F000014A
:100FB8007351D92600017451DA22DE50DD10D8B4FD
:100FC80021D00001796F2D0E00010001606F000132
:100FD8007951000120EE02F000017351D926000179
:100FE8007451DA22DECF7AF0DDCF7BF001D85FD002
:100FF8000500FA6E00017A51FD6E7B51FE6EFF6AA4
:10100800FA50120073C0D9FF74C0DAFFDECF79F04E
:10101800DDCF7AF079C0D9FF7AC0DAFF2D0E3FD044
:10102800000100018FA143D0000120EE02F0000171
:101038007351D92600017451DA22DE50DD10D8B47C
:1010480021D00001796F200E00010001606F0001BE
:101058007951000120EE02F000017351D9260001F8
:101068007451DA22DECF7AF0DDCF7BF001D81FD0C1
:101078000500FA6E00017A51FD6E7B51FE6EFF6A23
:10108800FA50120073C0D9FF74C0DAFFDECF79F0CE
:10109800DDCF7AF079C0D9FF7AC0DAFF200EDF6E93
:1010A80073C0D9FF74C0DAFFDE2A000EDD22C00E3D
:1010B800000100018F150001796F080E0001000181
:1010C800901500017A6F00017A51080A400ED8B4D1
:1010D8007919D8A43DD0000120EE02F00001735127
:1010E800D92600017451DA22DE50DD10D8B421D09F
:1010F8000001796F300E00010001606F0001795125
:10110800000120EE02F000017351D926000174514C
:10111800DA22DECF7AF0DDCF7BF001D8B8D1050036
:10112800FA6E00017A51FD6E7B51FE6EFF6AFA502D
:10113800120073C0D9FF74C0DAFFDECF79F0DDCFBB
:101148007AF079C0D9FF7AC0DAFF300EDF6E98D115
:10115800C00E000100018F150001796F080E000113
:101168000001901500017A6F00017A51080A800E7B
:10117800D8B47919D8A48BD1000120EE02F000016F
:101188007351D92600017451DA22DE50DD10D8B42B
:1011980021D00001796F300E00010001606F00015D
:1011A8007951000120EE02F000017351D9260001A7
:1011B8007451DA22DECF7AF0DDCF7BF001D81FD070
:1011C8000500FA6E00017A51FD6E7B51FE6EFF6AD2
:1011D800FA50120073C0D9FF74C0DAFFDECF79F07D
:1011E800DDCF7AF079C0D9FF7AC0DAFF300EDF6E32
:1011F80073C0D9FF74C0DAFFDE2A000EDD220001B9
:1012080020EE02F000017351D92600017451DA2250
:10121800DE50DD10D8B42CD0000100018FBB06D001
:10122800000E00010001826F780E05D0000E00014B
:101238000001826F580E0001816F81C060F00001CB
:1012480020EE02F000017351D92600017451DA2210
:10125800DECF79F0DDCF7AF001D819D10500FA6E2A
:1012680000017951FD6E7A51FE6EFF6AFA50120044
:10127800000100018FBB06D0000E00010001846F41
:10128800780E05D0000E00010001846F580E000191
:10129800836F73C0D9FF74C0DAFFDECF79F0DDCF7A
:1012A8007AF079C0D9FF7AC0DAFF000183C0DFFF86
:1012B800E7D0000100018751020DCE0EF324F66E2F
:1012C800FA0EF420F76EF86A000EF8220900000101
:1012D800F5CF62F00A000001F5CF63F08AC060F034
:1012E8008BC061F066EC68F0000160C06BF0000133
:1012F80061C06CF0000E000100016E6F0A0E000163
:101308006D6F5DEC6CF0000100016B516DD08AC00F
:1013180060F08BC061F0000100018751020DE00E02
:10132800F324F66EFA0EF420F76EF86A000EF8222F
:1013380009000001F5CF62F00A000001F5CF63F063
:1013480066EC68F00001000160510F0B000100011C
:101358007C6F000100018FBB06D0FD0E000100016B
:10136800866FCD0E05D0FD0E00010001866FBC0E04
:101378000001856F000100017C51010DF35000014F
:10138800000185250001796FF450000100018621D4
:1013980000017A6F79C0F6FF7AC0F7FF000EF86E89
:1013A80008000001F5CF8EF034D08AC060F08BC001
:1013B80061F0000100018751020DC20EF324F66EA0
:1013C800FA0EF420F76EF86A000EF8220900000100
:1013D800F5CF62F00A000001F5CF63F066EC68F023
:1013E800000100016051070B300F000100018E6FF2
:1013F80010D0000100018F51C00B000AD8B459D792
:10140800400AD8B4D2D7C00AD8B481D7400AD8B4D1
:1014180050D7000120EE02F000017351D9260001D7
:101428007451DA22DE50DD10D8B41BD08EC060F0C3
:10143800000120EE02F000017351D9260001745119
:10144800DA22DECF79F0DDCF7AF001D820D005009E
:10145800FA6E00017951FD6E7A51FE6EFF6AFA50FC
:10146800120073C0D9FF74C0DAFFDECF79F0DDCF88
:101478007AF079C0D9FF7AC0DAFF00018EC0DFFFA9
:1014880073C0D9FF74C0DAFFDE2A000EDD22000126
:101498000001870700018729D8A4ABD70001000104
:1014A8008FA757D0000100018951800A800F010ED3
:1014B800D8B4885DD8A04DD0000120EE02F000011C
:1014C8007351D92600017451DA22DE50DD10D8B4E8
:1014D80021D00001796F200E00010001606F00012A
:1014E8007951000120EE02F000017351D926000164
:1014F8007451DA22DECF7AF0DDCF7BF001D81FD02D
:101508000500FA6E00017A51FD6E7B51FE6EFF6A8E
:10151800FA50120073C0D9FF74C0DAFFDECF79F039
:10152800DDCF7AF079C0D9FF7AC0DAFF200EDF6EFE
:1015380073C0D9FF74C0DAFFDE2A000EDD22000175
:1015480000018807D8A08907000189518811D8A40B
:10155800B3D70001000175510001796F0001000146
:10156800765100017A6F0001754B762B79C0F6FF32
:101578007AC0F7FF000EF86E0F0EF76403D008006C
:10158800F55005D0F6CFE9FFF7CFEAFFEF5000019D
:1015980000018E6F00018E6768EF00F0000E0001F9
:1015A8000001746F000E0001736F1200000E040139
:1015B80004010B6F000E04010A6F00010001C25103
:1015C800530AD8A4D6D300010001C351750AD8A480
:1015D80060D000010001F151520AD8B44FD0C4C004
:1015E800D9FFC5C0DAFF00010001C651080D010E80
:1015F800F326000EF4220201000EF324E16E02012C
:10160800020EF420E26EDFCFE7FF00010001C651B1
:101618000001C86FC96B0001C83BC93BF00EC91770
:10162800C8510F0BC913F00EC817110E0001C825B9
:10163800000100016A6F000E0001C92100016B6FF3
:10164800C4C0D9FFC5C0DAFFDF50000100016C6FCC
:10165800C1EC72F0300EC4C0D9FFC5C0DAFFDF623A
:101668001200C6C08FF00001C86F000E0001000113
:10167800906F0001C85102EC4FF012000001C86FD2
:10168800060E00010001B16F0001C85117EC49F0C6
:10169800120000010001C351670AD8A44FD0C4C08A
:1016A800D9FFC5C0DAFF00010001C651080D020EBE
:1016B800F326000EF4220201000EF324E16E02016B
:1016C800020EF420E26EDFCFE7FF00010001C651F1
:1016D8000001C86FC96B0001C83BC93BF00EC917B0
:1016E800C8510F0BC913F00EC817120E0001C825F8
:1016F800000100016A6F000E0001C92100016B6F33
:10170800C4C0D9FFC5C0DAFFDF50000100016C6F0B
:10171800C1EC72F0300EC4C0D9FFC5C0DAFFDF6279
:101728001200C6C08FF00001C86F000E0001000152
:10173800906F0001C85102EC4FF012000001000147
:10174800C351660AD8A43CD0C4C0D9FFC5C0DAFFCB
:1017580000010001C651080D030EF326000EF42205
:101768000201000EF324E16E0201020EF420E26E83
:10177800DFCFE7FF00010001C6510001C86FC96B48
:101788000001C83BC93BF00EC917C8510F0BC9135C
:10179800F00EC817130E0001C825000100016A6F7A
:1017A800000E0001C92100016B6FC4C0D9FFC5C07C
:1017B800DAFFDF50000100016C6FC1EC72F012001B
:1017C80000010001C351740AD8A467D200010001C6
:1017D800C667E6D0C4C0D9FFC5C0DAFFDF502B0A00
:1017E800D8B407D02D0EC4C0D9FFC5C0DAFFDF6258
:1017F800CCD0000120EE01F00001C451D92600012F
:10180800C551DA22DF500001C86FD00E0001C8258B
:10181800000100016B6F000100016C6BFF0E6C236F
:10182800030E000100016E6FE80E00016D6F72EC8F
:1018380070F000016BC002F400016CC003F40001F9
:1018480020EE02F00001C451D9260001C551DA2268
:10185800DF500001C86FD00E0001C825000100014B
:101868006B6F000100016C6BFF0E6C23000E000112
:1018780000016E6F640E00016D6F72EC70F0000174
:101888006BC004F400016CC005F4000120EE03F005
:101898000001C451D9260001C551DA22DF500001E8
:1018A800C86FD00E0001C825000100016B6F000150
:1018B80000016C6BFF0E6C23000E000100016E6FBF
:1018C8000A0E00016D6F72EC70F000016BC006F437
:1018D80000016CC007F4000120EE04F00001C451BF
:1018E800D9260001C551DA22DF500001C86FD00E99
:1018F8000001C82504010401086F04010401096BF3
:10190800FF0E0923040102C4C8F0040103C4C9F08E
:101918000401040104510001C82704010401055110
:101928000001C9230401040106510001C82704016C
:10193800040107510001C9230401040108510001F1
:10194800C825040104010A6F0401040109510001BA
:10195800C92104010B6F000E000100016B6F170E07
:1019680000016A6FC4C0D9FFC5C0DAFFDF500001AB
:1019780000016C6FC1EC72F0C4C0D9FFC5C0DAFFBA
:10198800DF5000010001F36F03D10001C86F050E9D
:1019980000010001B16F0001C85117EC49F0F8D0FF
:1019A80000010001C651020AD8A4DED0C4C0D9FF84
:1019B800C5C0DAFFDF500001C86FD00E0001C8258E
:1019C800000100016B6F000100016C6BFF0E6C23BE
:1019D800270E000100016E6F100E00016D6F72EC92
:1019E80070F000016BC002F400016CC003F4000148
:1019F80020EE01F00001C451D9260001C551DA22B8
:101A0800DF500001C86FD00E0001C8250001000199
:101A18006B6F000100016C6BFF0E6C23030E00015D
:101A280000016E6FE80E00016D6F72EC70F000013E
:101A38006BC004F400016CC005F4000120EE02F054
:101A48000001C451D9260001C551DA22DF50000136
:101A5800C86FD00E0001C825000100016B6F00019E
:101A680000016C6BFF0E6C23000E000100016E6F0D
:101A7800640E00016D6F72EC70F000016BC006F42B
:101A880000016CC007F4000120EE03F00001C4510E
:101A9800D9260001C551DA22DF500001C86FD00EE7
:101AA8000001C825000100016B6F000100016C6B8B
:101AB800FF0E6C23000E000100016E6F0A0E00017C
:101AC8006D6F72EC70F000016BC008F400016CC01F
:101AD80009F4000120EE04F00001C451D9260001E8
:101AE800C551DA22DF500001C86FD00E0001C825A9
:101AF80004010401006F04010401016BFF0E0123BE
:101B0800040102C4C8F0040103C4C9F004010401BB
:101B180004510001C8270401040105510001C9232B
:101B28000401040106510001C827040104010751FA
:101B38000001C9230401040108510001C827040158
:101B4800040109510001C9230401040100510001E5
:101B5800C825040104010A6F0401040101510001B0
:101B6800C92104010B6F14D0C4C073F0C5C074F050
:101B78000001C86F040E00010001756F0001C85113
:101B880088EC37F0000173C00AF4000174C00BF44C
:101B980000010001C651080D040EF326000EF422C0
:101BA8000201000EF324D96E0201020EF420DA6E4F
:101BB80004010AC4DEFF04010BC4DDFF00010001BB
:101BC800C6510001C86FC96B0001C83BC93BF00E84
:101BD800C917C8510F0BC913F00EC817140E00010E
:101BE800C825000100016A6F000E0001C92100012B
:101BF8006B6F040100010AC460F0040100010BC40A
:101C080061F000010001626B0001636B0001CA6FA3
:101C1800010E00010001646F0001CA5114EC72F05A
:101C2800000100016C6FC1EC72F000010001C651A7
:101C38000001C86FC96B0001C83BC93BF00EC9174A
:101C4800C8510F0BC913F00EC817150E0001C8258F
:101C5800000100016A6F000E0001C92100016B6FCD
:101C6800040100010AC460F0040100010BC461F022
:101C780000010001626B0001636B0001CA6F000E76
:101C880000010001646F0001CA5114EC72F00001F8
:101C980000016C6FC1EC72F0120000010001C35129
:101CA8006C0AD8A45BD0C4C073F0C5C074F000013E
:101CB800C86F010E00010001756F0001C85188EC62
:101CC80037F0000173C00AF4000174C00BF4060E6B
:101CD800040104010A5D000E04010B59D8B033D089
:101CE80000010001C651080D070EF326000EF4226C
:101CF8000201000EF324D96E0201020EF420DA6EFE
:101D080004010AC4DFFF00010001C6510001C86FC9
:101D1800C96B0001C83BC93BF00EC917C8510F0B6E
:101D2800C913F00EC817160E0001C82500010001DE
:101D38006A6F000E0001C92100016B6F0AC46CF0C4
:101D4800C1EC72F012000001C86F050E000100011D
:101D5800B16F0001C85117EC49F012000001C86FBB
:101D6800040E00010001B16F0001C85117EC49F0E1
:101D7800120000010001C251520AD8A4A0D20001E9
:101D88000001C3516E0AD8A40ED100010001C66734
:101D980012D000010001C651080D0201000EF32403
:101DA800D96E0201020EF420DA6E010EDF6203D052
:101DB80071EC6FF0120000010001C605D8A412D022
:101DC80000010001C651080D0201000EF324D96E6E
:101DD8000201020EF420DA6E010EDF6203D037EC46
:101DE8006BF0120000010001C651020AD8A412D0FB
:101DF80000010001C651080D0201000EF324D96E3E
:101E08000201020EF420DA6E010EDF6203D0BAEC92
:101E180071F0120000010001C651030AD8A412D0C3
:101E280000010001C651080D0201000EF324D96E0D
:101E38000201020EF420DA6E010EDF6203D061ECBB
:101E480073F0120000010001C651040AD8A412D090
:101E580000010001C651080D0201000EF324D96EDD
:101E68000201020EF420DA6E010EDF6203D060EC8C
:101E780071F0120000010001C651050AD8A412D061
:101E880000010001C651080D0201000EF324D96EAD
:101E98000201020EF420DA6E010EDF6203D00CECB0
:101EA80069F0120000010001C651060AD8A412D038
:101EB80000010001C651080D0201000EF324D96E7D
:101EC8000201020EF420DA6E010EDF6203D044EC48
:101ED8005CF0120000010001C651070AD8A412D014
:101EE80000010001C651080D0201000EF324D96E4D
:101EF8000201020EF420DA6E010EDF6203D0D3EC89
:101F080070F0120000010001C651080AD8A412D0CE
:101F180000010001C651080D0201000EF324D96E1C
:101F28000201020EF420DA6E010EDF6203D0A3EC88
:101F380070F0120000010001C651090AD8A412D09D
:101F480000010001C651080D0201000EF324D96EEC
:101F58000201020EF420DA6E010EDF6203D00AECF1
:101F680067F0120000010001C6510A0AD8A412D075
:101F780000010001C651080D0201000EF324D96EBC
:101F88000201020EF420DA6E010EDF6203D097EC34
:101F980065F012000001C86F4E0E00010001E96FE4
:101FA8000001C851120000010001C351750AD8A4EC
:101FB80032D0FE0E00010001926F3F0E0001916FBA
:101FC80000010001C7C093F000010001946B000EEE
:101FD80000010001966F750E0001956F0001000168
:101FE800C651080D010EF326000EF4220201000E60
:101FF800F324D96E0201020EF420DA6EDF500001DC
:10200800C86F0001C85100010001976F0001986B6B
:1020180003EC71F0120000010001C351670AD8A453
:1020280032D0FE0E00010001926F3F0E0001916F49
:1020380000010001C7C093F000010001946B000E7D
:1020480000010001966F670E0001956F0001000105
:10205800C651080D020EF326000EF4220201000EEE
:10206800F324D96E0201020EF420DA6EDF5000016B
:10207800C86F0001C85100010001976F0001986BFB
:1020880003EC71F0120000010001C351660AD8A4E4
:1020980032D0FE0E00010001926F3F0E0001916FD9
:1020A80000010001C7C093F000010001946B000E0D
:1020B80000010001966F660E0001956F0001000196
:1020C800C651080D030EF326000EF4220201000E7D
:1020D800F324D96E0201020EF420DA6EDF500001FB
:1020E800C86F0001C85100010001976F0001986B8B
:1020F80003EC71F0120000010001C351740AD8A466
:102108009BD000010001C66735D0FD0E000100011B
:10211800926F600E0001916F00010001C7C093F03B
:1021280000010001946B000E00010001966F740E0F
:102138000001956F00010001F3C097F00001000154
:10214800986B00010001C651080D040EF326000E1D
:10215800F4220201000EF324D96E0201020EF420CB
:10216800DA6E0001DECF99F00001DDCF9AF003ECC2
:1021780071F0120000010001C651020AD8A42ED045
:10218800FD0E00010001926FEF0E0001916F00013A
:102198000001C7C093F000010001946B000E00011C
:1021A8000001966F740E0001956F00010001C65181
:1021B800080D040EF326000EF4220201000EF3248B
:1021C800D96E0201020EF420DA6E0001DECF97F01C
:1021D8000001DDCF98F003EC71F01200FD0E000154
:1021E8000001926FDE0E0001916F00010001C7C06F
:1021F80093F000010001946B000E00010001966F3E
:10220800740E0001956F00010001C651080D040EFF
:10221800F326000EF4220201000EF324D96E020107
:10222800020EF420DA6E0001DECF97F00001DDCF58
:1022380098F003EC71F0120000010001C3516C0A20
:10224800D8A432D0FE0E00010001926F4E0E00019C
:10225800916F00010001C7C093F000010001946B69
:10226800000E00010001966F6C0E0001956F0001D1
:102278000001C651080D070EF326000EF4220201D4
:10228800000EF324D96E0201020EF420DA6EDF503C
:102298000001C86F0001C85100010001976F0001DB
:1022A800986B03EC71F012000001C86F040E000176
:1022B8000001B16F0001C85117EC49F0120000018C
:1022C800C86F020E00010001B16F0001C85117EC80
:1022D80049F0120023EC6EF089880201FA6FFF0EB4
:1022E80000010001606F0201FA517FEC75F00201F4
:1022F800FA6F010E00010001606F0201FA51DBEC78
:102308006FF0F28EF28CD08E1AEC76F00201FA6F32
:10231800070E00010001606F0201FA51B9EC67F085
:102328000201FA6F010E00010001606F0201FA510B
:10233800BAEC75F000010001FD51310AD8A41AD099
:102348000201FA6F000E00010001B16F0201FA519B
:102358000201FB6F000E00010001B26F0201FB5188
:102368000201FC6F000E00010001B36F0201FC5175
:10237800E7EC71F0E5EC75F024EC76F00001000173
:10238800FD51310AD8A41AD00201FA6F000E0001DB
:102398000001B16F0201FA510201FB6F010E000149
:1023A8000001B26F0201FB510201FC6F000E000137
:1023B8000001B36F0201FC51E7EC71F070EC75F0AD
:1023C80000010001FD51310AD8A41AD00201FA6FA8
:1023D800000E00010001B16F0201FA510201FB6F0A
:1023E800020E00010001B26F0201FB510201FC6FF5
:1023F800000E00010001B36F0201FC51E7EC71F01F
:10240800BFEC3AF00201FA6F000E00010001B66F4E
:102418000201FA516CEC44F000010001FD51310A4F
:10242800D8A41AD00201FA6F000E00010001B16FA2
:102438000201FA510201FB6F030E00010001B26FA5
:102448000201FB510201FC6F000E00010001B36F95
:102458000201FC51E7EC71F0C4EC25F00001000129
:10246800FD51310AD8A41AD00201FA6F000E0001FA
:102478000001B16F0201FA510201FB6F040E000165
:102488000001B26F0201FB510201FC6F000E000156
:102498000001B36F0201FC51E7EC71F00101010E7C
:1024A80000010001926F0101AC0E0001916FFE0E58
:1024B80000010001946F6C0E0001936F0EEC70F038
:1024C8000201FA6F010E00010001906F0201FA513A
:1024D8000201FB6F010E00010001916F0201FB5127
:1024E8000101010E00010001936F0101AC0E000112
:1024F800926F0201FC6F010E00010001946F02014E
:10250800FC510201FD6F000E00010001956F0201F0
:10251800FD51CCEC6BF00101010E00010001926F3E
:102528000101AC0E0001916FFF0E00010001946FD4
:10253800F10E0001936F0EEC70F00201FA6F010EBC
:1025480000010001906F0201FA510201FB6F0A0EAF
:1025580000010001916F0201FB510101010E000110
:102568000001936F0101AC0E0001926F0201FC6F34
:10257800010E00010001946F0201FC510201FD6F80
:10258800000E00010001956F0201FD51CCEC6BF0CB
:102598000201FA6F230E00010001906F0201FA5147
:1025A8000201FB6F0A0E00010001916F0201FB514D
:1025B8000101010E00010001936F0101EF0E0001FE
:1025C800926F0201FC6F010E00010001946F02017D
:1025D800FC510201FD6F000E00010001956F020120
:1025E800FD51CCEC6BF00101010E00010001926F6E
:1025F8000101AC0E0001916FFF0E00010001946F04
:10260800EA0E0001936F0EEC70F00201FA6F010EF2
:1026180000010001906F0201FA510201FB6F130ED5
:1026280000010001916F0201FB510101010E00013F
:102638000001936F0101AC0E0001926F0201FC6F63
:10264800010E00010001946F0201FC510201FD6FAF
:10265800000E00010001956F0201FD51CCEC6BF0FA
:102668000201FA6F230E00010001906F0201FA5176
:102678000201FB6F130E00010001916F0201FB5173
:102688000101010E00010001936F0101E10E00013B
:10269800926F0201FC6F010E00010001946F0201AC
:1026A800FC510201FD6F000E00010001956F02014F
:1026B800FD51CCEC6BF00101010E00010001926F9D
:1026C8000101AC0E0001916FFB0E00010001946F37
:1026D800CC0E0001936F000E00010001616F000E27
:1026E8000001606F99EC75F00201FA6F0201FA516E
:1026F80000010001956F0001966B000E00010001BA
:10270800616F010E0001606F99EC75F00201FB6FBB
:102718000201FB5100010001976F0001986B000E48
:1027280000010001616F020E0001606F99EC75F005
:102738000201FC6F0201FC5100010001996F0001C8
:102748009A6B000E00010001616F030E0001606FBB
:1027580099EC75F00201FD6F0201FD5100010001C5
:102768009B6F00019C6B000E00010001616F040E5D
:102778000001606F99EC75F00201FE6F0201FE51D5
:10278800000100019D6F00019E6B0EEC70F00201CC
:10279800FA6F010E00010001906F0201FA51020167
:1027A800FB6F250E00010001916F0201FB51010131
:1027B800010E00010001936F0101AC0E0001926F40
:1027C8000201FC6F010E00010001946F0201FC512F
:1027D8000201FD6F000E00010001956F0201FD511D
:1027E800CCEC6BF00101010E00010001926F0101B8
:1027F800AC0E0001916FFF0E00010001946FE30E13
:102808000001936F0EEC70F00201FA6F010E0001E7
:102818000001906F0201FA510201FB6F1C0E0001CA
:102828000001916F0201FB510101010E000100013D
:10283800936F0101AC0E0001926F0201FC6F010E53
:1028480000010001946F0201FC510201FD6F000EAE
:1028580000010001956F0201FD51CCEC6BF0020103
:10286800FA6F230E00010001906F0201FA51020174
:10287800FB6F1C0E00010001916F0201FB51010169
:10288800010E00010001936F0101E80E0001926F33
:102898000201FC6F010E00010001946F0201FC515E
:1028A8000201FD6F000E00010001956F0201FD514C
:1028B800CCEC6BF00201FA6F000E00010001836F8F
:1028C8000201FA510201FB6F320E00010001846F10
:1028D8000201FB510201FC6F600E00010001856FCF
:1028E8000201FC510201FD6F010E00010001866F1B
:1028F8000201FD51A6EC73F00201FA6F000E00010F
:102908000001E76F0201FA510201FA6FC00E0001DF
:102918000001626F0201FA510201FB6F260E0001ED
:102928000001636F0201FB510201FC6F380E0001C8
:102938000001646F0201FC516CEC72F000010001AF
:10294800E76F0201FA6FC00E00010001626F020119
:10295800FA510201FB6F130E00010001636F0201BF
:10296800FB510201FC6F070E00010001646F0201B8
:10297800FC516CEC72F000010001E76F0201FA6F84
:10298800C00E00010001626F0201FA510201FB6FE3
:10299800260E00010001636F0201FB510201FC6F6A
:1029A800390E00010001646F0201FC516CEC72F0F9
:1029B80000010001E76F00010001FD51310AD8A4B0
:1029C80014D00201FA6F000E00010001B16F02017C
:1029D800FA510201FB6F050E00010001B26F0201FE
:1029E800FB51E7C0B3F0E7EC71F00201FA6F000E9B
:1029F80000010001E76F0201FA510201FA6F880E27
:102A080000010001626F0201FA510201FB6F000E22
:102A180000010001636F0201FB510201FC6F800E8F
:102A280000010001646F0201FC516CEC72F00001BE
:102A38000001E76F0201FA6F880E00010001626F62
:102A48000201FA510201FB6F010E00010001636FE0
:102A58000201FB510201FC6F000E00010001646FCE
:102A68000201FC516CEC72F000010001E76F000EEE
:102A780000010001686F030E0001676FB7EC5FF09B
:102A880000010001E76F030E00010001686FE80E06
:102A98000001676FE9EC6AF000010001E76F0201CD
:102AA800FA6F010E00010001606F0201FA51D0ECCB
:102AB80075F000010001FD51310AD8A414D00201BB
:102AC800FA6F000E00010001B16F0201FA51020114
:102AD800FB6F060E00010001B26F0201FB51E7C057
:102AE800B3F0E7EC71F00201FA6F000E000100018B
:102AF800E76F0201FA51A6EC6FF00001000E000129
:102B08000001696F0001FC0E0001686F3DEC5FF089
:102B180000010001E71300010001FC517E0B0001D8
:102B28000001FC6F0001000E00010001636F00014D
:102B3800FC0E0001626FABEC6DF000010001E713C1
:102B480000010001FD51310AD8A414D00201FA6F26
:102B5800000E00010001B16F0201FA510201FB6F82
:102B6800070E00010001B26F0201FB51E7C0B3F08C
:102B7800E7EC71F00201FA6F000E00010001E76F47
:102B88000201FA510FEC76F08DEC71F000010001B2
:102B9800E76F00010001FD51310AD8A414D00201E9
:102BA800FA6F000E00010001B16F0201FA51020133
:102BB800FB6F080E00010001B26F0201FB51E7C074
:102BC800B3F0E7EC71F00201FA6F000E02010201A6
:102BD800FF6F0201FA510DD00201FA6FFF0E0001DA
:102BE8000001606F0201FA517FEC75F002010201E9
:102BF800FF2B310E02010201FF65EED761EC75F083
:102C0800DBEC75F034EC65F00201FA6F000E0001A0
:102C18000001B66F0201FA516CEC44F0F1C0B1F05A
:102C2800FEEC58F089980201FA6F410E000100018C
:102C3800E96F0201FA5133EC71F0E9C0B1F040ECF0
:102C480072F000010001F451D8B455D00201FA6FB6
:102C5800000E00010001F46F0201FA5102010201A5
:102C68000151310AD8B471EC6FF002010201095127
:102C7800310AD8B437EC6BF0020102011151310A64
:102C8800D8B4BAEC71F0020102011951310AD8B472
:102C980061EC73F0020102012151310AD8B460ECF1
:102CA80071F0020102012951310AD8B40CEC69F023
:102CB800020102013151310AD8B444EC5CF002013E
:102CC80002013951310AD8B4D3EC70F00201020183
:102CD8004151310AD8B4A3EC70F002010201495104
:102CE800310AD8B40AEC67F0020102015151310AE5
:102CF800D8B497EC65F000010001E805D8A40AD023
:102D08000201FA6F000E00010001E86F0201FA519A
:102D18009FEC56F0030E00010001E4658CD7020118
:102D2800FA6F000E00010001E46F0201FA5102017E
:102D3800FA6F000E3E6E0201FA510201FA6F1E0E82
:102D480000010001B16F0201FA5117EC49F073D785
:102D5800020120EE01F00201F851D9260201F951D1
:102D6800DA222E0EDF6260EF1BF0020120EE03F084
:102D78000201F851D9260201F951DA222E0EDF623A
:102D880060EF1BF0020120EE05F00201F851D92690
:102D98000201F951DA222E0EDF6260EF1BF0020108
:102DA80020EE07F00201F851D9260201F951DA2282
:102DB8003A0EDF6260EF1BF0080E02010201F825EF
:102DC80000010001B66F000E02010201F9210001A5
:102DD800B76F00010001EA51F60F00010001B86F5A
:102DE800A6EC60F00009D8A413EF1BF055EF1BF018
:102DF8000001CD6F000E00010001EF6F0001CD5101
:102E0800020120EE02F00201F851D9260201F9511F
:102E1800DA22DF5000010001C26F020120EE06F045
:102E28000201F851D9260201F951DA22DF500001D6
:102E38000001C36F080E02010201F825000100011C
:102E4800C46F000E02010201F9210001C56FEFC035
:102E5800C6F0020120EE04F00201F851D926020161
:102E6800F951DA22DF5000010001C76FDAEC0AF0ED
:102E78006AEF1BF00001CD6F010E00010001EF6F3A
:102E88000001CD51020120EE02F00201F851D926CD
:102E98000201F951DA22DF5000010001C26F02017C
:102EA80020EE06F00201F851D9260201F951DA2282
:102EB800DF5000010001C36F080E02010201F8256E
:102EC80000010001C46F000E02010201F921000196
:102ED800C56FEFC0C6F0020120EE04F00201F85100
:102EE800D9260201F951DA22DF5000010001C76F2B
:102EF800DAEC0AF0EBD30001CD6F020E00010001FD
:102F0800EF6F0001CD51020120EE02F00201F851ED
:102F1800D9260201F951DA22DF5000010001C26FFF
:102F2800020120EE06F00201F851D9260201F951FA
:102F3800DA22DF5000010001C36F080E020102010E
:102F4800F82500010001C46F000E02010201F921F9
:102F58000001C56FEFC0C6F0020120EE04F00201C7
:102F6800F851D9260201F951DA22DF500001000197
:102F7800C76FDAEC0AF0AAD30001CD6F030E000187
:102F88000001EF6F0001CD51020120EE02F00201B5
:102F9800F851D9260201F951DA22DF500001000167
:102FA800C26F020120EE06F00201F851D926020193
:102FB800F951DA22DF5000010001C36F080E020147
:102FC8000201F82500010001C46F000E0201020190
:102FD800F9210001C56FEFC0C6F0020120EE04F030
:102FE8000201F851D9260201F951DA22DF50000115
:102FF8000001C76FDAEC0AF069D30001CD6F040E47
:1030080000010001EF6F0001CD51020120EE02F036
:103018000201F851D9260201F951DA22DF500001E4
:103028000001C26F020120EE06F00201F851D92614
:103038000201F951DA22DF5000010001C36F080EC6
:1030480002010201F82500010001C46F000E02010F
:103058000201F9210001C56FEFC0C6F0020120EEA0
:1030680004F00201F851D9260201F951DA22DF50A1
:1030780000010001C76FDAEC0AF028D30001CD6F18
:10308800050E00010001EF6F0001CD51020120EE95
:1030980002F00201F851D9260201F951DA22DF5073
:1030A80000010001C26F020120EE06F00201F85192
:1030B800D9260201F951DA22DF5000010001C36F5D
:1030C800080E02010201F82500010001C46F000E7C
:1030D80002010201F9210001C56FEFC0C6F002012B
:1030E80020EE04F00201F851D9260201F951DA2242
:1030F800DF5000010001C76FDAEC0AF0E7D20001E7
:10310800CD6F060E00010001EF6F0001CD510201E5
:1031180020EE02F00201F851D9260201F951DA2213
:10312800DF5000010001C26F020120EE06F002012B
:10313800F851D9260201F951DA22DF5000010001C5
:10314800C36F080E02010201F82500010001C46FD7
:10315800000E02010201F9210001C56FEFC0C6F09F
:10316800020120EE04F00201F851D9260201F951BA
:10317800DA22DF5000010001C76FDAEC0AF0A6D2AC
:103188000001CD6F070E00010001EF6F0001CD5166
:10319800020120EE02F00201F851D9260201F9518C
:1031A800DA22DF5000010001C26F020120EE06F0B2
:1031B8000201F851D9260201F951DA22DF50000143
:1031C8000001C36F080E02010201F8250001000189
:1031D800C46F000E02010201F9210001C56FEFC0A2
:1031E800C6F0020120EE04F00201F851D9260201CE
:1031F800F951DA22DF5000010001C76FDAEC0AF05A
:1032080065D20001CD6F080E00010001EF6F0001CB
:10321800CD51020120EE02F00201F851D926020137
:10322800F951DA22DF5000010001C26F020120EEDD
:1032380006F00201F851D9260201F951DA22DF50CD
:1032480000010001C36F080E02010201F825000108
:103258000001C46F000E02010201F9210001C56FCF
:10326800EFC0C6F0020120EE04F00201F851D926A1
:103278000201F951DA22DF5000010001C76FDAECD0
:103288000AF024D20001CD6F090E00010001EF6F92
:103298000001CD51020120EE02F00201F851D926B9
:1032A8000201F951DA22DF5000010001C06F02016A
:1032B80020EE06F00201F851D9260201F951DA226E
:1032C800DF5000010001C16F080E02010201F8255C
:1032D80000010001C26F000E02010201F921000184
:1032E800C36F2FEC23F0F2D10001CD6F0A0E00015D
:1032F8000001EF6F0001CD51020120EE02F0020142
:10330800F851D9260201F951DA22DF5000010001F3
:10331800C06F020120EE06F00201F851D926020121
:10332800F951DA22DF5000010001C16F080E0201D5
:103338000201F82500010001C26F000E020102011E
:10334800F9210001C36FCFEC2AF0C0D10001CD6F85
:103358000B0E00010001EF6F0001CD51020120EEBC
:1033680002F00201F851D9260201F951DA22DF50A0
:1033780000010001B66F020120EE06F00201F851CB
:10338800D9260201F951DA22DF5000010001B76F96
:10339800080E02010201F82500010001B86F000EB5
:1033A80002010201F9210001B96F26EC39F08ED132
:1033B8000001CD6F0C0E00010001EF6F0001CD512F
:1033C800020120EE02F00201F851D9260201F9515A
:1033D800DA22DF5000010001B66F020120EE06F08C
:1033E8000201F851D9260201F951DA22DF50000111
:1033F8000001B76F080E02010201F8250001000163
:10340800B86F000E02010201F9210001B96F4BECFF
:1034180028F05CD10001CD6F0D0E00010001EF6FA7
:103428000001CD51020120EE02F00201F851D92627
:103438000201F951DA22DF5000010001B66F0201E2
:1034480020EE06F00201F851D9260201F951DA22DC
:10345800DF5000010001B76F080E02010201F825D4
:1034680000010001B86F000E02010201F9210001FC
:10347800B96F2EEC53F02AD10001CD6F0E0E00016A
:103488000001EF6F0001CD51020120EE02F00201B0
:10349800F851D9260201F951DA22DF500001000162
:1034A800B66F020120EE06F00201F851D92602019A
:1034B800F951DA22DF5000010001B76F080E02014E
:1034C8000201F82500010001B86F000E0201020197
:1034D800F9210001B96F4CEC3CF0F8D00001CD6F38
:1034E8000F0E00010001EF6F0001CD51020120EE27
:1034F80002F00201F851D9260201F951DA22DF500F
:1035080000010001B66F020120EE06F00201F85139
:10351800D9260201F951DA22DF5000010001B76F04
:10352800080E02010201F82500010001B86F000E23
:1035380002010201F9210001B96F82EC6BF0C6D0DB
:103548000001CD6F100E00010001EF6F0001CD5199
:10355800020120EE02F00201F851D9260201F951C8
:10356800DA22DF5000010001BE6F020120EE06F0F2
:103578000201F851D9260201F951DA22DF5000017F
:103588000001BF6F080E02010201F82500010001C9
:10359800C06F000E02010201F9210001C16FAEECFB
:1035A80069F094D00001CD6F110E00010001EF6F9A
:1035B8000001CD51020120EE02F00201F851D92696
:1035C8000201F951DA22DF5000010001C76F020140
:1035D80020EE06F00201F851D9260201F951DA224B
:1035E800DF5000010001C86F080E02010201F82532
:1035F80000010001C96F000E02010201F92100015A
:10360800CA6FBFEC50F062D00001CD6F030E00010D
:103618000001B16F0001CD5117EC49F057D00201FC
:1036280020EE04F00201F851D9260201F951DA22FC
:10363800DF50400AD8B420D7010AD8B460D5020AAE
:10364800D8B41CD5070AD8B44FD6010AD8B4B0D616
:10365800020AD8B47BD60F0AD8B40CD4010AD8B45D
:103668003DD7050AD8B447D4030AD8B469D71F0A86
:10367800D8B482D4010AD8B4CDD6030AD8B492D724
:10368800010AD8B4BED5070AD8B4FCEF16F0020A6E
:10369800D8B476D50E0AD8B4F5D5020AD8B4ADD4C4
:1036A800B3D70001CD6F040E00010001B16F000116
:1036B800CD5117EC49F00AD00001CD6F010E000181
:1036C8000001B16F0001CD5117EC49F00001000174
:1036D800E9514E0AD8B412000001CD6F410E000125
:1036E8000001E96F0001CD511200000E0401040130
:1036F800066F000E0401056F000E040104010A6F35
:10370800000E0401096F0001C36F000E04010401DB
:10371800046F0001C351000E04010401016F000E83
:103728000401006F000E04010401086F000E04017B
:10373800076F000E040104010C6F000E04010B6FEB
:10374800000E04010401036F000E0401026F000162
:10375800C36FA00E00010001626F0001C351000E8B
:1037680000010001646F060E0001636FBBEC68F096
:1037780000010001E56F00010001E505D8A426D08D
:103788000001C36FA00E00010001626F0001C35168
:10379800000E00010001646F000E0001636FBBECB6
:1037A80068F000010001E56F0001C36FA00E000181
:1037B8000001626F0001C351000E00010001646F37
:1037C800010E0001636FBBEC68F025D00001C36FE8
:1037D800A00E00010001626F0001C351000E00013C
:1037E8000001646F030E0001636FBBEC68F0000119
:1037F8000001E56F0001C36FA00E00010001626FB8
:103808000001C351000E00010001646F040E0001A5
:10381800636FBBEC68F000010001E66FE5C062F081
:10382800E6C063F041EC70F0000162C0D9F000011D
:1038380063C0DAF000010001DA51D911D8B44FD3CE
:10384800FF0E00010001926F7C0E0001916F03ECE6
:1038580071F0FF0E00010001926F310E0001916FAF
:10386800D9C093F0DAC094F003EC71F00001C36F93
:10387800A00E00010001626F0001C351000E00019B
:103888000001646F130E0001636FBBEC68F0000168
:103898000001E56F0001C36FA00E00010001626F17
:1038A8000001C351000E00010001646F140E0001F5
:1038B800636FBBEC68F000010001E66FE5C062F0E1
:1038C800E6C063F041EC70F0000162C002F4000150
:1038D80063C003F4FF0E00010001926F3E0E000169
:1038E800916F02C493F003C494F003EC71F00001EB
:1038F800C36FA00E00010001626F0001C351000EEA
:1039080000010001646F0A0E0001636FBBEC68F0F0
:1039180000010001E56F0001C36FA00E0001000166
:10392800626F0001C351000E00010001646F0B0EAD
:103938000001636FBBEC68F000010001E66FE5C0B1
:1039480062F0E6C063F041EC70F0000162C002F47E
:10395800000163C003F4FF0E00010001926F4B0EDB
:103968000001916F02C493F003C494F003EC71F06A
:103978000001C36FA00E00010001626F0001C35176
:10398800000E00010001646F0E0E0001636FBBECB6
:1039980068F000010001B16F0001C46FA00E0001C2
:1039A8000001626F0001C451000E00010001646F44
:1039B8000D0E0001636FBBEC68F000010001B26FEF
:1039C8000001C56FA00E00010001626F0001C55122
:1039D800000E00010001646F0C0E0001636FBBEC68
:1039E80068F000010001B36F9AEC54F00001C36F56
:1039F800A00E00010001626F0001C351000E00011A
:103A08000001646F120E0001636FBBEC68F00001E7
:103A18000001B16F0001C46FA00E00010001626FC8
:103A28000001C451000E00010001646F110E000175
:103A3800636FBBEC68F000010001B26F0001C56F55
:103A4800A00E00010001626F0001C551000E0001C7
:103A58000001646F100E0001636FBBEC68F0000199
:103A68000001B36F0001C66FA00E00010001626F74
:103A78000001C651000E00010001646F0F0E000125
:103A8800636FBBEC68F000010001B46F3EEC57F0C7
:103A9800D9C005F4DAC006F4040105C4C3F0040172
:103AA80006C4C4F0070E0001C56F0001D890C433E6
:103AB800C3330001C52FF9D7C3C009F4C4C00AF441
:103AC800040104010A510911D8A418D00401000105
:103AD80005C460F00401000106C461F000010001A2
:103AE800626B0001636B0001C36F000E00010001EF
:103AF800646F0001C35114EC72F00ED0040104018C
:103B08000A510911D8B40BD0040104010941800BF2
:103B1800000804010401052504010401046F09C417
:103B280000F40AC401F4040104010A510911D8B4CB
:103B3800EBD0000E04010401086F000E0401076FAA
:103B4800D4D00001C36FA00E00010001626F000114
:103B5800C351040107C4C4F0040108C4C5F0070E2A
:103B6800D8900001C437C537E82EFAD7800E000177
:103B7800C42500010001636F000E0001C52100018A
:103B8800646F0201020E00010001666F0201780EE7
:103B98000001656F0001C66F800E00010001676FAC
:103BA8000001C6511CEC5AF0000E040104010C6F10
:103BB800000E04010B6F040104010B51200A0C11C3
:103BC800D8B48FD004010BC4C3F004010CC4C4F0F2
:103BD8000001D890C337C4370001D890C337C43721
:103BE8000201780E0001C325D96E0201020E000100
:103BF800C421DA6EDF5000010001F56F04010BC427
:103C0800C3F004010CC4C4F00001D890C337C43712
:103C18000001D890C337C437010E0001C327000E36
:103C2800C4230201780E0001C325D96E0201020ED9
:103C38000001C421DA6EDF5000010001F66F0401B3
:103C48000BC4C3F004010CC4C4F00001D890C337FE
:103C5800C4370001D890C337C437020E0001C32708
:103C6800000EC4230201780E0001C325D96E02019B
:103C7800020E0001C421DA6EDF5000010001F76F67
:103C880004010BC4C3F004010CC4C4F00001D890B3
:103C9800C337C4370001D890C337C437030E0001B7
:103CA800C327000EC4230201780E0001C325D96E74
:103CB8000201020E0001C421DA6EDF50000100018A
:103CC800F86F0001000E00010001C26F0001F50E3F
:103CD8000001C16FC6EC5CF0040104010B4B0C2B16
:103CE8006AD704010401074B082B040104010151A0
:103CF80004010401081906E104010401005104014A
:103D080004010719D8A41DD7040104010451D8B42B
:103D1800DCD00001C36FA00E00010001626F00013A
:103D2800C351040107C4C4F0040108C4C5F0070E58
:103D3800D8900001C437C537E82EFAD7800E0001A5
:103D4800C42500010001636F000E0001C5210001B8
:103D5800646F0201020E00010001666F0201780E15
:103D68000001656F0001C66F800E00010001676FDA
:103D78000001C6511CEC5AF0000E040104010C6F3E
:103D8800000E04010B6F8ED004010BC4C3F00401B4
:103D98000CC4C4F00001D890C337C4370001D890D0
:103DA800C337C4370201780E0001C325D96E02015A
:103DB800020E0001C421DA6EDF5000010001F56F28
:103DC80004010BC4C3F004010CC4C4F00001D89072
:103DD800C337C4370001D890C337C437010E000178
:103DE800C327000EC4230201780E0001C325D96E33
:103DF8000201020E0001C421DA6EDF500001000149
:103E0800F66F04010BC4C3F004010CC4C4F0000134
:103E1800D890C337C4370001D890C337C437020ECF
:103E28000001C327000EC4230201780E0001C32538
:103E3800D96E0201020E0001C421DA6EDF500001C2
:103E48000001F76F04010BC4C3F004010CC4C4F0F3
:103E58000001D890C337C4370001D890C337C4379E
:103E6800030E0001C327000EC4230201780E0001CF
:103E7800C325D96E0201020E0001C421DA6EDF509B
:103E880000010001F86F0001000E00010001C26F7F
:103E98000001F50E0001C16FC6EC5CF004010401DD
:103EA8000B4B0C2B0401040104510001C36FC46BBC
:103EB800040104010C510001C41905E104010401C5
:103EC8000B510001C319D8A45FD7FF0E00010001F0
:103ED800926F700E0001916F03EC71F01200FE0EEC
:103EE80000010001926F7A0E0001916F03EC71F0EE
:103EF8000001C36F470E00010001F16F0001C351BB
:103F08000001C36FA00E000100016A6F0001C351D8
:103F1800000E000100016C6F080E00016B6FF1C00C
:103F28006DF0E6EC6CF00001C36FA00E000100011B
:103F38006A6F0001C351000E000100016C6F090E89
:103F480000016B6F0001C46F000E000100016D6F6E
:103F58000001C451E6EC6CF01200000E00010001F3
:103F6800B96F000E0001BA6F000E0001BB6F000EA2
:103F78000001BC6F0001B16F2E0E256E0001B1511A
:103F880000010001F551500AD8A41200000120EEEA
:103F980001F00001AF51D9260001B051DA22DF50FB
:103FA80000010001D06F000120EE02F00001AF51C6
:103FB800D9260001B051DA22DF5000010001CF6F8D
:103FC800000120EE03F00001AF51D9260001B051E5
:103FD800DA22DF5000010001CE6F0001CEC0B1F03F
:103FE8000001CFC0B2F00001D0C0B3F00001D1C0D1
:103FF800B4F0070E06D00001D890B433B333B2330F
:10400800B133E82EF8D7B4C063F0B3C062F0B2C0E1
:1040180061F0B1C060F0800E00010001646F960E7F
:104028000001656F980E0001666F000E0001676F52
:10403800BFEC5BF00001000160512D6E0001CEC0A5
:10404800B1F00001CFC0B2F00001D0C0B3F0000160
:10405800D1C0B4F0070E06D00001D890B433B33302
:10406800B233B133E82EF8D7B4C063F0B3C062F00E
:10407800B2C061F0B1C060F0800E00010001646F51
:10408800960E0001656F980E0001666F000E000124
:10409800676F66EC62F063C0C0F062C0BFF061C0D9
:1040A800BEF060C0BDF0BDC060F0BEC061F0BFC072
:1040B80062F0C0C063F0400E00010001646F420E60
:1040C8000001656F0F0E0001666F000E0001676F3B
:1040D800BFEC5BF00001000160512C6EBDC060F0C8
:1040E800BEC061F0BFC062F0C0C063F0400E000106
:1040F8000001646F420E0001656F0F0E0001666FCC
:10410800000E0001676F66EC62F063C0C0F062C029
:10411800BFF061C0BEF060C0BDF0BDC060F0BEC001
:1041280061F0BFC062F0C0C063F0A00E00010001E2
:10413800646F860E0001656F010E0001666F000E48
:104148000001676FBFEC5BF00001000160512B6E4E
:10415800BDC060F0BEC061F0BFC062F0C0C063F017
:10416800A00E00010001646F860E0001656F010E4C
:104178000001666F000E0001676F66EC62F063C0B5
:10418800C0F062C0BFF061C0BEF060C0BDF0BDC08D
:1041980060F0BEC061F0BFC062F0C0C063F0100E36
:1041A80000010001646F270E0001656F000E000119
:1041B800666F000E0001676FBFEC5BF00001000145
:1041C80060512A6EBDC060F0BEC061F0BFC062F031
:1041D800C0C063F0100E00010001646F270E0001DB
:1041E800656F000E0001666F000E0001676F66ECD8
:1041F80062F063C0C0F062C0BFF061C0BEF060C0D2
:10420800BDF0BDC060F0BEC061F0BFC062F0C0C00C
:1042180063F0E80E00010001646F030E0001656F92
:10422800000E0001666F000E0001676FBFEC5BF0C7
:10423800000100016051296EBDC060F0BEC061F090
:10424800BFC062F0C0C063F0E80E00010001646FF7
:10425800030E0001656F000E0001666F000E00017D
:10426800676F66EC62F063C0C0F062C0BFF061C007
:10427800BEF060C0BDF0BDC060F0BEC061F0BFC0A0
:1042880062F0C0C063F0640E00010001646F000EAC
:104298000001656F000E0001666F000E0001676F78
:1042A800BFEC5BF0000100016051286EBDC060F0FA
:1042B800BEC061F0BFC062F0C0C063F0640E000110
:1042C8000001646F000E0001656F000E0001666F4B
:1042D800000E0001676F66EC62F063C0C0F062C058
:1042E800BFF061C0BEF060C0BDF0BDC060F0BEC030
:1042F80061F0BFC062F0C0C063F00A0E00010001A7
:10430800646F000E0001656F000E0001666F000EFD
:104318000001676FBFEC5BF0000100016051276E80
:10432800BDC060F0BEC061F0BFC062F0C0C063F045
:104338000A0E00010001646F000E0001656F000E97
:104348000001666F000E0001676F66EC62F0000105
:1043580000016051266E2B50000100016E6F0001B4
:104368006F6B0001706B0001716BA00E0001000102
:10437800726F860E0001736F010E0001746F000EDC
:104388000001756F9BEC6AF071C0BCF070C0BBF0A7
:104398006FC0BAF06EC0B9F02A50000100016E6F0C
:1043A80000016F6B0001706B0001716B100E000152
:1043B8000001726F270E0001736F000E0001746F09
:1043C800000E0001756F9BEC6AF0000100016E5150
:1043D80000010001B927000100016F51000100012F
:1043E800BA2300010001705100010001BB23000144
:1043F8000001715100010001BC2329500001000196
:104408006E6F00016F6B0001706B0001716BE80E3D
:1044180000010001726F030E0001736F000E0001AE
:10442800746F000E0001756F9BEC6AF000010001CB
:104438006E5100010001B927000100016F51000110
:104448000001BA2300010001705100010001BB23E3
:1044580000010001715100010001BC232850000136
:1044680000016E6F00016F6B0001706B0001716BD2
:10447800640E00010001726F000E0001736F000EE0
:104488000001746F000E0001756F9BEC6AF000016B
:1044980000016E5100010001B927000100016F51B0
:1044A80000010001BA230001000170510001000160
:1044B800BB2300010001715100010001BC232750FA
:1044C800000100016E6F00016F6B0001706B00014D
:1044D800716B0A0E00010001726F000E0001736F0C
:1044E800000E0001746F000E0001756F9BEC6AF0FE
:1044F800000100016E5100010001B927000100010F
:104508006F5100010001BA23000100017051000140
:104518000001BB2300010001715100010001BC230F
:10452800265000010001B927000E0001BA2300013E
:10453800BB230001BC23C80E00010001756FF50EF6
:1045480000010001766F3B0E00010001776FB9C0D2
:1045580068F0BAC069F0BBC06AF0BCC06BF04DEC43
:104568006AF06AC074F069C073F068C072F027EC32
:104578004AF074C09CF073C09BF072C09AF0E4ECEF
:104588004FF09AC03EF19BC03FF100010001CEAB55
:1045980007D00001880E0001B727130E0001B823C9
:1045A80000010001CEA907D00001C40E0001B72701
:1045B800090E0001B823000E00010001B86F000EBB
:1045C8000001B76FB7C06BF0B8C06CF0030E000104
:1045D80000016E6FE80E00016D6F5DEC6CF000017C
:1045E8006BC0B5F000016CC0B6F0B7C060F0B8C0E1
:1045F80061F0030E00010001636FE80E0001626FB5
:1046080066EC68F0000100016051246EB5C060F0EE
:10461800B6C061F0000E00010001636F640E000176
:10462800626F66EC68F0000100016051236EB5C04E
:104638006BF0B6C06CF0000E000100016E6F640EE6
:1046480000016D6F5DEC6CF000016BC0B5F000010E
:104658006CC0B6F01200C2C0D9FFC3C0DAFFDF5089
:10466800D00F0A0DF3CFCBF0000120EE01F00001CE
:10467800C251D9260001C351DA22DF50D00F000100
:104688000001CC6F00010001CB5100010001CC25D5
:1046980000010001C86F000120EE03F00001C251C3
:1046A800D9260001C351DA22DF50D00F0A0DF3CF0B
:1046B800CBF0000120EE04F00001C251D926000120
:1046C800C351DA22DF50D00F00010001CC6F000186
:1046D8000001CB5100010001CC2500010001C96F88
:1046E800000120EE06F00001C251D9260001C35195
:1046F800DA22DF50D00F0A0DF3CFCBF0000120EE05
:1047080007F00001C251D9260001C351DA22DF5057
:10471800D00F00010001CC6F00010001CB51000156
:104728000001CC2500010001CA6F00010001C05141
:10473800530AD8A4A6D100010001C151610AD8A426
:1047480021D0000120EE02F00001C251D92600015B
:10475800C351DA223A0EDF621200000120EE05F0A2
:104768000001C251D9260001C351DA223A0EDF6294
:104778001200C8C069F0C9C06AF0CAC06BF01EEC6C
:104788004DF0120000010001C151730AD8A450D0A5
:1047980000010001CAC060F000010001616B000E59
:1047A80000010001636F0A0E0001626F34EC5BF0D8
:1047B80000010001605100010001CC6F00010001FF
:1047C800CAC060F000010001616B000E0001000129
:1047D800636F0A0E0001626F2FEC60F000010001A8
:1047E800605100010001CB6F00010001CC39F00BD2
:1047F80000010001CB2500010001CA6F0001C46F50
:10480800DE0E00010001626F0001C4510001C56F96
:10481800000E00010001636F0001C5510001000195
:10482800CA51800900010001646F6CEC72F012003B
:1048380000010001C1516D0AD8A44BD0000100014C
:10484800C9C060F000010001616B000E00010001A9
:10485800636F0A0E0001626F34EC5BF00001000127
:10486800605100010001CC6F00010001C9C060F077
:1048780000010001616B000E00010001636F0A0E68
:104888000001626F2FEC60F000010001605100012F
:104898000001CB6F00010001CC39F00B00010001D1
:1048A800CB2500010001C96F0001C46FDE0E0001B5
:1048B8000001626F0001C4510001C56F010E0001C3
:1048C8000001636F0001C551C9C064F06CEC72F05F
:1048D800120000010001C151680AD8A44BD00001A0
:1048E8000001C8C060F000010001616B000E00010A
:1048F8000001636F0A0E0001626F34EC5BF0000187
:104908000001605100010001CC6F00010001C8C026
:1049180060F000010001616B000E00010001636F8F
:104928000A0E0001626F2FEC60F000010001605177
:1049380000010001CB6F00010001CC39F00B000130
:104948000001CB2500010001C86F0001C46FDE0E15
:1049580000010001626F0001C4510001C56F020E21
:1049680000010001636F0001C551C8C064F06CEC20
:1049780072F0120000010001C151750AD8A41AD0C2
:10498800C2C0D9FFC3C0DAFFDF5002010201496F7C
:10499800000E000100016B6FA10E00016A6FC2C01A
:1049A800D9FFC3C0DAFFDF50000100016C6FC1EC12
:1049B80072F0120000010001C1516C0AD8A436D06F
:1049C800C2C073F0C3C074F00001C46F010E0001CF
:1049D8000001756F0001C45188EC37F0000173C005
:1049E800C6F0000174C0C7F0060E00010001C65DE4
:1049F800000E0001C759D8B00ED0C6C04FF2000E45
:104A0800000100016B6FA60E00016A6FC6C06CF052
:104A1800C1EC72F012000001C46F050E0001000124
:104A2800B16F0001C45117EC49F0120000010001F8
:104A3800C151660AD8A41AD0C2C0D9FFC3C0DAFFD0
:104A4800DF50020102014B6F000E000100016B6F85
:104A5800A30E00016A6FC2C0D9FFC3C0DAFFDF50DE
:104A6800000100016C6FC1EC72F012000001C46F0C
:104A7800040E00010001B16F0001C45117EC49F0A8
:104A8800120000010001C051520AD8A46ED00001E2
:104A98000001C1516E0AD8B406D000010001C1510D
:104AA800610AD8A403D029EC6DF0120000010001BE
:104AB800C151660AD8A424D0FE0E00010001926FED
:104AC800A20E0001916F00010001EF51080D030EC5
:104AD800F326000EF4220201000EF324D96E02011F
:104AE800020EF420DA6EDF500001C46F0001C451D9
:104AF80000010001936F0001946B03EC71F0120048
:104B080000010001C1516C0AD8A424D0FF0E000195
:104B18000001926F170E0001916F00010001EF5123
:104B2800080D070EF326000EF4220201000EF324EE
:104B3800D96E0201020EF420DA6EDF500001C46F54
:104B48000001C45100010001936F0001946B03EC54
:104B580071F012000001C46F040E00010001B16F72
:104B68000001C45117EC49F012000001C46F020E95
:104B780000010001B16F0001C45117EC49F01200A7
:104B8800010101010A29D8B40B29D8B40C29D8B4D9
:104B98000D29D8A404D00001BB6F010E03D0000179
:104BA800BB6F000E01010101606F0001BB51000ED7
:104BB80000010001616F050E0001606F99EC75F04E
:104BC80001010101666F0001BB6F000E00010001C9
:104BD800C06F0001BB516BD100010001C051080D2D
:104BE8000201000EF324D96E0201020EF420DA6EDF
:104BF80000010001C0510001BB6FBC6B0001BB3B51
:104C0800BC3BF00EBC17BB510F0BBC13F00EBB170F
:104C1800100E0001BB2500010001606F000E0001AD
:104C2800BC210001616F99EC75F0DF6E0001000195
:104C3800C051080D010EF326000EF4220201000EE9
:104C4800F324D96E0201020EF420DA6E000100018D
:104C5800C0510001BB6FBC6B0001BB3BBC3BF00EFD
:104C6800BC17BB510F0BBC13F00EBB17110E000184
:104C7800BB2500010001606F000E0001BC2100018E
:104C8800616F99EC75F0DF6E00010001C051080DED
:104C9800020EF326000EF4220201000EF324D96E50
:104CA8000201020EF420DA6E00010001C051000179
:104CB800BB6FBC6B0001BB3BBC3BF00EBC17BB51D0
:104CC8000F0BBC13F00EBB17120E0001BB25000121
:104CD8000001606F000E0001BC210001616F99ECBA
:104CE80075F0DF6E00010001C051080D030EF326B8
:104CF800000EF4220201000EF324D96E0201020E06
:104D0800F420DA6E00010001C0510001BB6FBC6BDA
:104D18000001BB3BBC3BF00EBC17BB510F0BBC13D7
:104D2800F00EBB17130E0001BB2500010001606FD8
:104D3800000E0001BC210001616F99EC75F0DF6E77
:104D480000010001C0510001BB6FBC6B0001BB3BFF
:104D5800BC3BF00EBC17BB510F0BBC13F00EBB17BE
:104D6800140E0001BB2500010001606F000E000158
:104D7800BC210001616F99EC75F000010001626FC0
:104D880000010001C0510001BD6FBE6B0001BD3BB9
:104D9800BE3BF00EBE17BD510F0BBE13F00EBD1774
:104DA800150E0001BD2500010001606F000E000115
:104DB800BE210001616F99EC75F000010001636F7D
:104DC80041EC70F000010001C051080D040EF326FB
:104DD800000EF4220201000EF324D96E0201020E25
:104DE800F420DA6E000162C0DEFF000163C0DDFF5F
:104DF80000010001C051080D070EF326000EF42231
:104E08000201000EF324D96E0201020EF420DA6EBC
:104E180000010001C0510001BB6FBC6B0001BB3B2E
:104E2800BC3BF00EBC17BB510F0BBC13F00EBB17ED
:104E3800160E0001BB2500010001606F000E000185
:104E4800BC210001616F99EC75F0DF6E0001000173
:104E5800C051080D060EF326000EF4220201000EC2
:104E6800F324D96E0201020EF420DA6E000100016B
:104E7800C0510001BB6FBC6B0001BB3BBC3BF00EDB
:104E8800BC17BB510F0BBC13F00EBB17180E00015B
:104E9800BB2500010001606F000E0001BC2100016C
:104EA800616F99EC75F0DF6E00010001C02B0A0EEE
:104EB80000010001C06590D6000E00010001616F7D
:104EC800170E0001606F99EC75F000010001F36F97
:104ED800000E00010001616F080E0001606F99EC7F
:104EE80075F000010001626F000E00010001616FA2
:104EF800090E0001606F99EC75F000010001636F05
:104F080041EC70F0000162C043F0000163C044F05E
:104F1800000E00010001616F0B0E0001606F99EC3B
:104F280075F000010001FE6F0001BB6FA00E0001CB
:104F38000001626F0001BB51000E00010001646FA7
:104F4800080E0001636FBBEC68F000010001F16F0F
:104F580000010001F151530AD8A449D00001BB6FE8
:104F6800530E00010001B16F0001BB51FEEC58F077
:104F78000001BB6FA00E00010001626F0001BB5170
:104F8800000E00010001646F090E0001636FBBECA5
:104F980068F000010001BF6F00010001BF05D8A43F
:104FA80013D00001BB6F440E00010001B16F000176
:104FB800BB51FEEC58F00001BB6F010E000100016F
:104FC800E26F0001BB5112000001BB6F470E0001E8
:104FD8000001B16F0001BB51FEEC58F00001BB6F3E
:104FE800000E00010001E26F0001BB511200000138
:104FF8000001F151520AD8A403D0EEEC33F01200AC
:1050080000010001F151470AD8A413D00001BB6F79
:10501800470E00010001B16F0001BB51FEEC58F0D2
:105028000001BB6F000E00010001E26F0001BB51DF
:1050380012000001BB6F470E00010001F16F000173
:10504800BB510001BB6FA00E000100016A6F000197
:10505800BB51000E000100016C6F080E00016B6F60
:10506800F1C06DF0E6EC6CF00001BB6F470E00017B
:105078000001B16F0001BB51FEEC58F00001BB6F9D
:10508800000E00010001E26F0001BB511200000197
:10509800BA6F000E00010001C66F0001BA5100018D
:1050A8000001EA51F60F00010001C46F000E000173
:1050B8000001C86F000E0001C76F0001BA6F000E33
:1050C80000010001C56F0001BA5106C1C0F007C157
:1050D800C1F008C1C2F009C1C3F012C1BDF013C1CB
:1050E800BEF014C1BFF000010001B651530AD8A4A4
:1050F80066D100010001C451080AD8A455D10001A5
:1051080020EE04F00001B851D9260001B951DA2285
:105118002E0EDF623ED10001BA6F000E00010001C1
:10512800C96F0001BA5150D000010001C951010DE9
:10513800F35000010001B825D96EF45000010001B8
:10514800B921DA6E2F0EDF6433D000010001C95196
:10515800010DF35000010001B825D96EF45000018B
:105168000001B921DA6EDF500001BA6F3A0E000172
:10517800BA5DD8B01DD000010001C951010DF3502E
:1051880000010001B825D96EF45000010001B921D1
:10519800DA6E00010001C951010D0001C00EF324AF
:1051A800E16E0001000EF420E26EDFCFE7FF09D0C8
:1051B8000001BA6F010E00010001C66F0001BA516B
:1051C80008D000010001C92B030E00010001C965C8
:1051D800ABD70001BA6F000E00010001CA6F0001D1
:1051E800BA516BD000010001CA510001BA6FBB6B04
:1051F800050E0001BA27000EBB230001BA510001B9
:105208000001B825D96E0001BB5100010001B92188
:10521800DA6E2F0EDF6445D000010001CA5100018B
:10522800BA6FBB6B050E0001BA27000EBB23000145
:10523800BA5100010001B825D96E0001BB51000127
:105248000001B921DA6EDF500001BC6F3A0E00018F
:10525800BC5DD8B026D000010001CA510001BA6F68
:10526800BB6B050E0001BA27000EBB230001BA5123
:1052780000010001B825D96E0001BB5100010001F1
:10528800B921DA6E00010001CA51010D0001BD0EFD
:10529800F324E16E0001000EF420E26EDFCFE7FF99
:1052A80009D00001BA6F010E00010001C66F0001AC
:1052B800BA5108D000010001CA2B020E00010001FA
:1052C800CA6590D700010001C66758D00001000EDA
:1052D80000010001746F0001C00E0001736F00012E
:1052E800BA6F040E00010001756F0001BA5188EC15
:1052F80037F0000173C0C7F0000174C0C8F0F50EA4
:1053080000010001C75D010E0001C859D8B02BD0BB
:105318000001000E00010001746F0001BD0E0001C4
:10532800736F0001BA6F030E00010001756F000171
:10533800BA5188EC37F000010001735100010001F7
:10534800C56FF40E00010001C725000100016A6F56
:10535800010E00010001C82100016B6FC5C06CF08F
:10536800C1EC72F012000001BA6F050E00010001D5
:10537800B16F0001BA5117EC49F012000001BA6F81
:10538800050E00010001B16F0001BA5117EC49F098
:1053980012000001BA6F050E00010001B16F000193
:1053A800BA5117EC49F012000001BA6F050E00015E
:1053B8000001B16F0001BA5117EC49F01200000169
:1053C8000001B651520AD8A4D2D000010001C4513C
:1053D800040AD8A4C1D00001BA6F000E0001000170
:1053E800CB6F0001BA5150D000010001CB51010D23
:1053F800F35000010001B825D96EF45000010001F6
:10540800B921DA6E2F0EDF6433D000010001CB51D1
:10541800010DF35000010001B825D96EF4500001C8
:105428000001B921DA6EDF500001BA6F3A0E0001AF
:10543800BA5DD8B01DD000010001CB51010DF35069
:1054480000010001B825D96EF45000010001B9210E
:10545800DA6E00010001CB51010D0001C00EF324EA
:10546800E16E0001000EF420E26EDFCFE7FF09D005
:105478000001BA6F010E00010001C66F0001BA51A8
:1054880008D000010001CB2B030E00010001CB6501
:10549800ABD700010001C66754D00001000E00011F
:1054A8000001746F0001C00E0001736F0001BA6F34
:1054B800040E00010001756F0001BA5188EC37F045
:1054C800000173C0C7F0000174C0C8F0F50E0001F8
:1054D8000001C75D010E0001C859D8B027D0F40EED
:1054E80000010001C72500010001606F010E0001E5
:1054F8000001C8210001616F99EC75F000010001FD
:10550800C56FFC0E00010001926FFD0E0001916F46
:10551800C7C093F0C8C094F000010001C5C095F061
:1055280000010001966B03EC71F012000001BA6FE4
:10553800050E00010001B16F0001BA5117EC49F0E6
:1055480012000001BA6F050E00010001B16F0001E1
:10555800BA5117EC49F012000001BA6F050E0001AC
:105568000001B16F0001BA5117EC49F01200FF0EAB
:1055780000010001926F870E0001916F03EC71F03A
:105588000001BA6F020E00010001B16F0001BA51AB
:1055980017EC49F01200C2C0D9FFC3C0DAFFDF50D0
:1055A800D00F0A0DF3CFFDF1000120EE01F000014C
:1055B800C251D9260001C351DA22DF50D00F0101B0
:1055C8000101FE6F01010101FD5101010101FE25EB
:1055D80001010101FC6F000120EE03F00001C2513E
:1055E800D9260001C351DA22DF50D00F0A0DF3CFBC
:1055F800FDF1000120EE04F00001C251D92600019E
:10560800C351DA22DF50D00F01010101FE6F010101
:105618000101FD5101010101FE2501010101FB6F9D
:10562800000120EE08F00001C251D9260001C35143
:10563800DA22DF50D00F0A0DF3CFFDF1000120EE82
:1056480009F00001C251D9260001C351DA22DF5006
:10565800D00F01010101FE6F01010101FD5101019E
:105668000101FE2501010101FA6F000120EE0BF096
:105678000001C251D9260001C351DA22DF50D00FF0
:1056880001010101FE6FFEC1F6F100010001C051E8
:10569800530AD8A4AED100010001C151610AD8A4AF
:1056A8000BD0FAC169F0FBC16AF0FCC16BF0F6C11E
:1056B8006CF09EEC45F0120000010001C151640A33
:1056C800D8A44BD001010001FCC160F00001000129
:1056D800616B000E00010001636F0A0E0001626F2A
:1056E80034EC5BF000010001605101010101FD6F24
:1056F80001010001FCC160F000010001616B000EB6
:1057080000010001636F0A0E0001626F2FEC60F068
:1057180000010001605101010101FE6F0101010159
:10572800FD39F00B01010101FE2501010101FC6FAA
:105738000001C46FDE0E00010001626F0001C45158
:105748000001C56F040E00010001636F0001C5511F
:10575800FCC164F06CEC72F0120000010001C15150
:105768006D0AD8A44BD001010001FBC160F0000113
:105778000001616B000E00010001636F0A0E000159
:10578800626F34EC5BF0000100016051010101011E
:10579800FD6F01010001FBC160F000010001616BB8
:1057A800000E00010001636F0A0E0001626F2FEC0A
:1057B80060F000010001605101010101FE6F01016B
:1057C8000101FD39F00B01010101FE250101010173
:1057D800FB6F0001C46FDE0E00010001626F000163
:1057E800C4510001C56F050E00010001636F00017F
:1057F800C551FBC164F06CEC72F0120000010001AD
:10580800C151790AD8A44BD001010001FAC160F056
:1058180000010001616B000E00010001636F0A0EB8
:105828000001626F34EC5BF000010001605101017E
:105838000101FD6F01010001FAC160F000010001E2
:10584800616B000E00010001636F0A0E0001626FB8
:105858002FEC60F000010001605101010101FE6FB1
:1058680001010101FD39F00B01010101FE250101D2
:105878000101FA6F0001C46FDE0E00010001626FC2
:105888000001C4510001C56F060E00010001636FDD
:105898000001C551FAC164F06CEC72F0120000010D
:1058A8000001C151770AD8A43DD00001C46FDE0EB3
:1058B80000010001626F0001C4510001C56F030EB1
:1058C80000010001636F0001C5516BEC6DF001012F
:1058D8000101F76FF6C1C4F0070E0001C4170101FA
:1058E8000101F751380B0001C41101010101F76FE3
:1058F8000001C46FDE0E00010001626F0001C45197
:105908000001C56F030E00010001636F0001C5515E
:1059180001010101F751080900010001646F6CECF5
:1059280072F0120000010001C151750AD8A41AD002
:10593800C2C0D9FFC3C0DAFFDF5002010201516FB4
:10594800000E000100016B6FB10E00016A6FC2C04A
:10595800D9FFC3C0DAFFDF50000100016C6FC1EC52
:1059680072F0120000010001C1516C0AD8A436D0AF
:10597800C2C073F0C3C074F00001C46F010E00010F
:105988000001756F0001C45188EC37F0000173C045
:10599800F8F1000174C0F9F1060E01010101F85D8A
:1059A800000E0101F959D8B00ED0F8C157F2000E17
:1059B800000100016B6FB60E00016A6FF8C16CF050
:1059C800C1EC72F012000001C46F050E0001000165
:1059D800B16F0001C45117EC49F012000001C46F07
:1059E800040E00010001B16F0001C45117EC49F029
:1059F800120000010001C051520AD8A43ED0000193
:105A08000001C1516E0AD8A403D062EC67F01200FD
:105A180000010001C1516C0AD8A424D0FF0E000176
:105A28000001926F0A0E0001916F00010001EF5111
:105A3800080D070EF326000EF4220201000EF324CF
:105A4800D96E0201020EF420DA6EDF500001C46F35
:105A58000001C45100010001936F0001946B03EC35
:105A680071F012000001C46F040E00010001B16F53
:105A78000001C45117EC49F012000001C46F020E76
:105A880000010001B16F0001C45117EC49F0120088
:105A980000010001F151520AD8A41200BAC0D9FF7E
:105AA800BBC0DAFF0301780E00010001E325E16EB7
:105AB800E26A0301030EE222DFCFE7FF000120EED6
:105AC80001F00001BA51D9260001BB51DA220001C8
:105AD8000001E3510001BC6FBD6B010E0001BC2742
